:020000040800F2
:1000000020040020C1010008BB0B0008490B0008B8
:10001000B90B0008F9020008E50E00080000000016
:100020000000000000000000000000000D0C0008AF
:10003000FB02000800000000BD0B0008490C00088E
:10004000DB010008DB010008DB010008DB01000820
:10005000DB010008DB010008DB010008DB01000810
:10006000DB010008DB010008DB010008DB01000800
:10007000DB010008DB010008DB010008DB010008F0
:10008000DB010008DB010008DB010008DB010008E0
:10009000DB010008DB010008DB010008DB010008D0
:1000A000DB010008DB010008DB010008DB010008C0
:1000B000DB010008DB010008DB010008DB010008B0
:1000C000DB010008DB010008DB010008DB010008A0
:1000D000DB010008DB010008DB010008DB01000890
:1000E000DB010008DB010008DB010008DB01000880
:1000F000DB010008DB010008DB010008DB01000870
:10010000DB010008DB010008DB010008DB0100085F
:10011000DB010008DB010008DB010008DB0100084F
:10012000DB010008DB010008DB010008DB0100083F
:10013000DB010008DB010008DB010008DB0100082F
:10014000DB010008DB010008DB010008DB0100081F
:10015000DB010008DB010008DB010008DB0100080F
:10016000DB010008DB010008DB010008DB010008FF
:10017000DB010008DB010008DB01000800000000D3
:10018000DB010008DB010008DB010008DB010008DF
:10019000DB010008DB010008DB010008DB010008CF
:1001A000DB010008DB010008DB010008DFF80CD0F0
:1001B00000F090F800480047B1100008200400202B
:1001C0000648804706480047FEE7FEE7FEE7FEE7F1
:1001D000FEE7FEE7FEE7FEE7FEE7FEE7D10C0008DC
:1001E000AD0100082DE9F05F0546002092469B46D0
:1001F00088460646814640241BE02846414647463D
:10020000224600F057F853465A46C01A914110D37F
:1002100011461846224600F03EF82D1A67EB0108F9
:100220004F4622460120002100F035F817EB000967
:100230004E41201EA4F10104DFDC484631462A4627
:100240004346BDE8F09FD2B201E000F8012B491E01
:10025000FBD270470022F6E710B513460A46044663
:100260001946FFF7F0FF204610BD30B50B4601469A
:1002700000202022012409E021FA02F59D4205D345
:1002800003FA02F5491B04FA02F52844151EA2F1EF
:100290000102F1DC30BD202A04DB203A00FA02F131
:1002A000002070479140C2F1200320FA03F3194364
:1002B00090407047202A04DB203A21FA02F0002106
:1002C000704721FA02F3D040C2F120029140084366
:1002D00019467047064C074D06E0E06840F0010300
:1002E00094E8070098471034AC42F6D3FFF762FF5A
:1002F0005012000870120008FEE7704770B50446FF
:1003000000F002F90546601C02D00448007804445D
:1003100000F0FAF8401BA042FAD370BD0C00002098
:100320002DE9F84F00224FF0010803254FF00F0E82
:100330000B6808FA02F42340A3426ED14E68012EE6
:1003400005D0022E03D0112E01D0122E12D18668B4
:100350004FEA420C05FA0CF7BE43CF6807FA0CF7D8
:10036000374387604668A6430C79C4F30014944071
:1003700034434460C668570005FA07FC8C6826EAD7
:100380000C06BC403443C4604C68022C01D0122CD3
:1003900013D1D40800EB8404A346D4F8209054076A
:1003A0004FEAD46A0EFA0AF629EA06090E6906FA35
:1003B0000AF646EA0906CBF8206004680E7924EABA
:1003C0000C0406F00306BE40264306604C68E400B9
:1003D0006FD53B4C266846F480462660246822F0A0
:1003E000030604F480440094364C3444A446D4F804
:1003F00008489607360F0EFA06F7BC43324FB8424C
:1004000001D100272EE0314FB84201D1012729E068
:100410002F4FB84202D1022724E04AE02D4FB842C4
:1004200001D103271EE02C4FB84201D1042719E067
:100430002A4FB84201D1052714E0294FB84201D113
:1004400006270FE0274FB84201D107270AE0264FC1
:10045000B84201D1082705E0244FB84201D109274D
:1004600000E00A27B7402743CCF80878204E3468CC
:100470004F689C43FF0300D51C4334601C4E361D5F
:1004800034684F689C43BF0300D51C433460184E4A
:10049000083634684F689C43FF0200D51C43346023
:1004A000134E0C3634684F689C43BF0200D51C4382
:1004B0003460521C102AFFF43BAFBDE8F88F0000F7
:1004C0004438024000300140000002400004024075
:1004D00000080240000C02400010024000140240DC
:1004E00000180240001C024000200240002402408C
:1004F000003C01400069084000D0012070470AB16B
:10050000816170470904FBE701488068704700007B
:100510000C00002002488168027811448160704715
:100520000C0000200B4810B5016841F40071016017
:10053000016841F480610160016841F480710160EB
:10054000032000F061F8002000F006F800F024F825
:10055000002010BD003C024070B50D4D04464FF424
:100560007A712878B1FBF0F00A490968B1FBF0F024
:1005700000F0D6FA48B9102C07D200222146501EAE
:1005800000F022F800206C6070BD012070BD0000FA
:100590000C000020180000200A4808B5016841F44A
:1005A00080410160006800F4804000900548001F11
:1005B000016841F080510160006800F080500090B7
:1005C00008BD000044380240F0B40E4B1B680C46D6
:1005D000C3F30223C3F10705042D00D90425191D17
:1005E000072901D2002300E0DB1E012606FA05F1EF
:1005F000491E214099409E40761E16403143F0BC72
:1006000000F086BC0CED00E0064900F00702086827
:100610004FF6FF03184040EA0220034A10430860E7
:10062000704700000CED00E00000FA052DE9F047EE
:100630000E46050065D0DFF81481D8F80000F7B247
:1006400000F00F00B04207D288F80070D8F8000020
:1006500000F00F00B04254D128683D4C810712D5FC
:10066000400703D5206840F4E05020602878000758
:1006700003D5206840F4604020602068A96820F01D
:10068000F000084320602878C0072DD03049686802
:100690000839012812D0022813D0032811D0096884
:1006A000890700292DDA216821F003010143216027
:1006B000FFF72AFF814641F2883A0EE00968890374
:1006C000EFE709688901ECE7FFF71EFFA0EB0901DE
:1006D000514502D90320BDE8F0872068696800F021
:1006E0000C00B0EB810FEFD1D8F80010404601F0BC
:1006F0000F01B14207D90770006800F00F00B04247
:1007000001D00120E7E72878400705D52068E9688F
:1007100020F4E050084320602878000706D52068C0
:10072000296920F4604040EAC100206000F018F818
:100730002168084AC1F30311515CC84006490860AA
:1007400006480068FFF708FF0020C4E7003C0240AD
:100750000838024040120008180000201000002055
:10076000154810B5006810F00C02144813D0144955
:10077000042A0FD0082A0ED10F4C241F22682368A8
:1007800002F03F025B0207D52068C0F38810A0FB8F
:10079000010106E0084610BD2168C1F38811A1FBE4
:1007A00000010023FFF71EFD2168C1F30141491C30
:1007B0004900B0FBF1F010BD083802400024F400FD
:1007C000002D31012DE9F84F040076D02078DFF8B4
:1007D00038A3CE4DC00749D0DAF800105046C1F317
:1007E0008101012908D00068C0F3810002280AD1E4
:1007F000281D0068400206D52868800336D5606849
:100800000028E2D032E06068B0F5803F10D0B0F54B
:10081000A02F286810D020F480302860286820F4A9
:10082000802028606068A0B1FFF76EFE06460CE0ED
:10083000286840F48030F4E740F480202860F7E72F
:10084000FFF762FE801B642873D828688003F7D501
:100850000CE0FFF759FE064605E000BFFFF754FE27
:10086000801B6428F0D828688003F7D42078DFF84C
:10087000A08280074FF000093ED5DAF800105046FC
:1008800011F00C0F09D00068C0F3810002280BD1D1
:100890009D48001F0068400206D42868800715D5CF
:1008A000E068012809D111E0E068B8B10120C8F87A
:1008B0000000FFF729FE064605E020E1FFF724FED1
:1008C000801B0228C0D828688007F7D528682169CE
:1008D00020F0F80040EAC10028600DE0C8F8009060
:1008E000FFF712FE064604E0FFF70EFE801B02280B
:1008F0001FD828688007F7D42078000722D5824EB9
:10090000844861696C3671B101210160FFF7FCFD1B
:10091000074604E0FFF7F8FDC01B022809D830683D
:100920008007F7D50EE0C0F80090FFF7EDFD074611
:1009300005E082E0FFF7E8FDC01B02287DD83068A3
:100940008007F7D42078400768D5DFF8BCB10027CE
:100950000BF1380BDBF80000C0000BD4DBF8001003
:1009600041F08051CBF80010DBF80000012700F0C7
:1009700080500090684E3068C00510D4306840F454
:1009800080703060FFF7C0FD009005E0FFF7BCFD10
:100990000099401A022850D83068C005F6D55A4E42
:1009A000A068683601280FD00528306810D020F0E4
:1009B00001003060306820F004003060A068B8B1F9
:1009C000FFF7A2FD00900FE0306840F00100F4E76F
:1009D00040F004003060F7E7FFF796FD0099411AF8
:1009E00041F28830814266D830688007F4D50EE045
:1009F000FFF78AFD009007E0FFF786FD0099411A96
:100A000041F28830814256D830688007F4D42FB143
:100A1000DBF8001021F08051CBF80010A069D0B3B2
:100A2000DAF800205146C2F38102022A4AD0022895
:100A3000484607D0C8F8600000E03CE0FFF764FDDE
:100A400004463BE04746C8F86000FFF75DFD0646F8
:100A500005E000BFFFF758FD801B02282BD828684F
:100A60008001F7D4D4E907010843A16A2B4A490859
:100A700002EB0141626A41EA8211084394F82C10AA
:100A800040EA01612048001F016001203866FFF73D
:100A90003BFD044605E034E0FFF736FD001B02286D
:100AA00009D828688001F7D52BE000BFFFF72CFD9F
:100AB000001B022802D90320BDE8F88F28688001B6
:100AC000F4D41EE00128F7D00868E26900F4800140
:100AD000914214D1226A00F03F0191420FD147F6B2
:100AE000C071626A0140914209D1A26A00F44031AA
:100AF000914204D1E16A00F07060884201D0012087
:100B0000DAE70020D8E70000083802400038024049
:100B100000004742800E4742007000400000FFFF87
:100B200010B5401EB0F1807F01D3012010BD4FF001
:100B3000E02460610F21601700F0EAF90020A06155
:100B400007202061002010BDFEE7000070B586B0D0
:100B500014216846FFF77EFB15480024016841F028
:100B600020010160016801F020010591016841F058
:100B70008001016000680F4E00F080000590224661
:100B8000F7213046FFF7BBFCF72000900125CDE9A7
:100B90000154694630460394FFF7C2FB4FF47F408F
:100BA0008DE8310069463046FFF7BAFB06B070BDEC
:100BB0003038024000140240FEE7704770470000E2
:100BC00010B5114C4FF480512046FFF793FC98B1BB
:100BD0004FF400512046FFF78DFC78B14FF480416F
:100BE0002046FFF787FC58B14FF400412046FFF73D
:100BF00081FC38B1002010BD012010BD022010BDC5
:100C0000032010BD042010BD0014024070470000F6
:100C100008B5024604A1684600F066F96A4600215C
:100C2000082000F031F908BD2564200008B502460F
:100C300004A1684600F058F96A4600210A2000F035
:100C400023F908BD25640000FFF764BC30B593B0FC
:100C500030216846FFF7FEFA14210CA8FFF7FAFAD4
:100C600019480025016841F080510160006800F0DA
:100C7000805011901548016821F4404141F48041B1
:100C800001600068022400F44040119001200090AF
:100C9000000401908001CDE906400A200890482018
:100CA000CDE9090404200B906846FFF78BFD0CA9E1
:100CB0000F2081E83100E002CDE90F0502210CA8E8
:100CC000FFF7B4FC13B030BD403802400070004064
:100CD0000548016841F47001016003494FF000606C
:100CE000803908607047000088ED00E010B50120F1
:100CF00000F006F8BDE810400320FFF7FFBA00003F
:100D000010B50446002201210548FFF7F8FB200931
:100D100000F008F804F00F00BDE8104000F002B841
:100D20000014024070B5164D044600F00802102170
:100D30002846FFF7E4FB04F0040220212846FFF7D1
:100D4000DEFB04F0020240212846FFF7D8FB04F046
:100D5000010280212846FFF7D2FB01220421284608
:100D6000FFF7CDFB1420FFF7C9FA00220421284623
:100D7000FFF7C5FBBDE870401420FFF7BFBA0000C5
:100D80000014024008B509A212680092084AD378FC
:100D90008B4200D80021507191711DF80110084458
:100DA000C0B240F08000FFF7ABFF08BD0040145414
:100DB0000000002010B50446012211460548FFF747
:100DC0009EFB2009FFF7AEFF04F00F00BDE81040C6
:100DD000FFF7A8BF001402400449087820F004007F
:100DE000087040F00800FFF78BBF000000000020F3
:100DF0000449087840F00400087040F00800FFF74C
:100E00007FBF00000000002070B506460D4664203C
:100E1000FFF774FA1B4C0020012DE57026716071FC
:100E2000A071607001D9082060700320FFF77AFF7D
:100E30003220FFF763FA0320FFF774FF3220FFF739
:100E40005DFA0320FFF76EFF9620FFF757FA0220A6
:100E5000FFF768FF3220FFF751FA607840F020007A
:100E6000FFF74EFF04202070FFF7C2FFFFF73EFFA1
:100E70000220A0700620FFF743FFBDE870400A2063
:100E8000FFF73CBA0000002070B51546FFF77AFF67
:100E9000134C16E060792179884207D300206071F5
:100EA000A179491CC9B2A171FFF76CFF28780A2803
:100EB0000BD00D280FD0FFF77DFF6079401C6071CB
:100EC0006D1C28780028E5D170BDA079401CC1B206
:100ED000A171607901E0A1790020FFF753FFEFE7EE
:100EE00000000020FEE700000FB4084B10B504A975
:100EF00002AA039800F02CF8044602A9002000F092
:100F0000D1F8204610BC5DF814FB0000A5100008C5
:100F10000907090E002804DB00F1E02080F8001426
:100F2000704700F00F0000F1E02080F8141D7047BA
:100F300002E008C8121F08C1002AFAD170477047A2
:100F4000002001E001C1121F002AFBD17047000000
:100F50002DE9FF4F89B09B460446002506E0252871
:100F60000BD05A460B999047641C6D1C20780028C2
:100F7000F5D10DB02846BDE8F08F0027B846012214
:100F8000474900E0074314F8013F203B02FA03F011
:100F90000842F7D120782E2819D114F8010F47F014
:100FA00004072A280ED06FF02F022078A0F130011C
:100FB00009290CD808EB880102EB410100EB01087C
:100FC000641CF2E70A98641C50F8048B0A9020789D
:100FD0000028CED0642808D0692806D075281ED0F5
:100FE0005A460B9990476D1C58E00A994FF00A0930
:100FF00001C90A91002802DA40422D2102E0390598
:1010000004D52B218DF82010012103E0F90704D02D
:101010002021F7E78A4608AE0DE00021FAE70A9999
:101020004FF00A0901C90A91F7E74946FFF71DF990
:10103000303106F8011D0028F7D1ADEB060000F1B4
:101040002009780701D44FF00108C84502DDA8EB5C
:10105000090000E000208046002706E008A85A4664
:10106000C05D0B9990476D1C7F1C5745F6DB04E073
:1010700030205A460B9990476D1CB8F10001A8F139
:101080000108F5DC05E016F8010B5A460B9990476C
:101090006D1CB9F10001A9F10109F4DC641C65E7DC
:1010A000092801000A68531C0B601070704700008B
:1010B000FFF738FAFFF7CAFDFFF748FD02211020BD
:1010C000FFF7A2FE4FF47A70FFF718F94CA2002147
:1010D0000320FFF7D9FE4DA201210420FFF7D4FE23
:1010E0004FF4FA60FFF70AF9FFF776FEFFF7FEFD0F
:1010F000FFF77EFE002147A20846FFF7C5FE47A284
:1011000001210020FFF7C0FE474C484D002600BFDC
:10111000FFF756FD01280CD0FFF752FD022815D02D
:10112000FFF74EFD032821D0FFF74AFD04282AD0FF
:1011300038E0FFF745FD0128FBD02078401CC0B205
:101140002070642800D1267020780CE0FFF738FD6D
:101150000228FBD02078401EC0B22070FF2801D1A9
:1011600063202070C0B2FFF753FD1BE0FFF728FD9E
:101170000328FBD06078401CC0B260700A2800D100
:10118000667060780CE0FFF71BFD0428FBD06078E8
:10119000401EC0B26070FF2801D109206070C0B24B
:1011A000FFF744FD4FF480712846FFF7A3F920B9FB
:1011B0001FA201210A20FFF767FE4FF400712846A5
:1011C000FFF798F920B91BA201210A20FFF75CFE66
:1011D0004FF480612846FFF78DF920B916A201214E
:1011E0000A20FFF751FE4FF400612846FFF782F90D
:1011F00000288DD111A201210A20FFF745FE87E7C3
:101200005374617274696E672E2E2E004152433101
:101210003430300046524551203A20004368616E18
:101220006E656C203A200000070000200014024088
:1012300031000000320000003300000034000000E4
:101240000000000000000000010203040607080976
:1012500070120008000000201C000000300F000881
:101260008C1200081C00002004040000400F00083D
:10127000000000000000000000000000010000006D
:0C12800010000000000000000024F4003A
:04000005080001AD41
:00000001FF
